{
  "_format": "hh-sol-artifact-1",
  "contractName": "TaskContract",
  "sourceName": "contracts/TaskContract.sol",
  "abi": [
    {
      "anonymous": false,
      "inputs": [
        {
          "indexed": false,
          "internalType": "uint256",
          "name": "id",
          "type": "uint256"
        },
        {
          "indexed": false,
          "internalType": "bool",
          "name": "completed",
          "type": "bool"
        }
      ],
      "name": "TaskCompleted",
      "type": "event"
    },
    {
      "anonymous": false,
      "inputs": [
        {
          "indexed": false,
          "internalType": "uint256",
          "name": "id",
          "type": "uint256"
        },
        {
          "indexed": false,
          "internalType": "string",
          "name": "title",
          "type": "string"
        },
        {
          "indexed": false,
          "internalType": "string",
          "name": "description",
          "type": "string"
        },
        {
          "indexed": false,
          "internalType": "bool",
          "name": "completed",
          "type": "bool"
        },
        {
          "indexed": false,
          "internalType": "uint8",
          "name": "priority",
          "type": "uint8"
        },
        {
          "indexed": false,
          "internalType": "uint8",
          "name": "progress",
          "type": "uint8"
        },
        {
          "indexed": false,
          "internalType": "string",
          "name": "aiAdvice",
          "type": "string"
        },
        {
          "indexed": false,
          "internalType": "address",
          "name": "owner",
          "type": "address"
        },
        {
          "indexed": false,
          "internalType": "string",
          "name": "deadline",
          "type": "string"
        }
      ],
      "name": "TaskCreated",
      "type": "event"
    },
    {
      "anonymous": false,
      "inputs": [
        {
          "indexed": false,
          "internalType": "uint256",
          "name": "id",
          "type": "uint256"
        }
      ],
      "name": "TaskDeleted",
      "type": "event"
    },
    {
      "anonymous": false,
      "inputs": [
        {
          "indexed": false,
          "internalType": "uint256",
          "name": "id",
          "type": "uint256"
        },
        {
          "indexed": false,
          "internalType": "string",
          "name": "newTitle",
          "type": "string"
        },
        {
          "indexed": false,
          "internalType": "string",
          "name": "newDescription",
          "type": "string"
        },
        {
          "indexed": false,
          "internalType": "uint8",
          "name": "newPriority",
          "type": "uint8"
        },
        {
          "indexed": false,
          "internalType": "uint8",
          "name": "newProgress",
          "type": "uint8"
        },
        {
          "indexed": false,
          "internalType": "string",
          "name": "newAiAdvice",
          "type": "string"
        },
        {
          "indexed": false,
          "internalType": "string",
          "name": "newDeadline",
          "type": "string"
        }
      ],
      "name": "TaskEdited",
      "type": "event"
    },
    {
      "inputs": [
        {
          "internalType": "uint256",
          "name": "_id",
          "type": "uint256"
        }
      ],
      "name": "completeTask",
      "outputs": [],
      "stateMutability": "nonpayable",
      "type": "function"
    },
    {
      "inputs": [
        {
          "internalType": "string",
          "name": "_title",
          "type": "string"
        },
        {
          "internalType": "string",
          "name": "_description",
          "type": "string"
        },
        {
          "internalType": "uint8",
          "name": "_priority",
          "type": "uint8"
        },
        {
          "internalType": "uint8",
          "name": "_progress",
          "type": "uint8"
        },
        {
          "internalType": "string",
          "name": "_aiAdvice",
          "type": "string"
        },
        {
          "internalType": "string",
          "name": "_deadline",
          "type": "string"
        }
      ],
      "name": "createTask",
      "outputs": [],
      "stateMutability": "nonpayable",
      "type": "function"
    },
    {
      "inputs": [
        {
          "internalType": "uint256",
          "name": "_id",
          "type": "uint256"
        }
      ],
      "name": "deleteTask",
      "outputs": [],
      "stateMutability": "nonpayable",
      "type": "function"
    },
    {
      "inputs": [
        {
          "internalType": "uint256",
          "name": "_id",
          "type": "uint256"
        },
        {
          "internalType": "string",
          "name": "_newTitle",
          "type": "string"
        },
        {
          "internalType": "string",
          "name": "_newDescription",
          "type": "string"
        },
        {
          "internalType": "uint8",
          "name": "_newPriority",
          "type": "uint8"
        },
        {
          "internalType": "uint8",
          "name": "_newProgress",
          "type": "uint8"
        },
        {
          "internalType": "string",
          "name": "_newAiAdvice",
          "type": "string"
        },
        {
          "internalType": "string",
          "name": "_newDeadline",
          "type": "string"
        }
      ],
      "name": "editTask",
      "outputs": [],
      "stateMutability": "nonpayable",
      "type": "function"
    },
    {
      "inputs": [],
      "name": "getAllTasks",
      "outputs": [
        {
          "components": [
            {
              "internalType": "uint256",
              "name": "id",
              "type": "uint256"
            },
            {
              "internalType": "string",
              "name": "title",
              "type": "string"
            },
            {
              "internalType": "string",
              "name": "description",
              "type": "string"
            },
            {
              "internalType": "bool",
              "name": "completed",
              "type": "bool"
            },
            {
              "internalType": "uint8",
              "name": "priority",
              "type": "uint8"
            },
            {
              "internalType": "uint8",
              "name": "progress",
              "type": "uint8"
            },
            {
              "internalType": "string",
              "name": "aiAdvice",
              "type": "string"
            },
            {
              "internalType": "address",
              "name": "owner",
              "type": "address"
            },
            {
              "internalType": "string",
              "name": "deadline",
              "type": "string"
            }
          ],
          "internalType": "struct TaskContract.Task[]",
          "name": "",
          "type": "tuple[]"
        }
      ],
      "stateMutability": "view",
      "type": "function"
    },
    {
      "inputs": [
        {
          "internalType": "uint256",
          "name": "_id",
          "type": "uint256"
        }
      ],
      "name": "getTask",
      "outputs": [
        {
          "components": [
            {
              "internalType": "uint256",
              "name": "id",
              "type": "uint256"
            },
            {
              "internalType": "string",
              "name": "title",
              "type": "string"
            },
            {
              "internalType": "string",
              "name": "description",
              "type": "string"
            },
            {
              "internalType": "bool",
              "name": "completed",
              "type": "bool"
            },
            {
              "internalType": "uint8",
              "name": "priority",
              "type": "uint8"
            },
            {
              "internalType": "uint8",
              "name": "progress",
              "type": "uint8"
            },
            {
              "internalType": "string",
              "name": "aiAdvice",
              "type": "string"
            },
            {
              "internalType": "address",
              "name": "owner",
              "type": "address"
            },
            {
              "internalType": "string",
              "name": "deadline",
              "type": "string"
            }
          ],
          "internalType": "struct TaskContract.Task",
          "name": "",
          "type": "tuple"
        }
      ],
      "stateMutability": "view",
      "type": "function"
    },
    {
      "inputs": [],
      "name": "getTaskCount",
      "outputs": [
        {
          "internalType": "uint256",
          "name": "",
          "type": "uint256"
        }
      ],
      "stateMutability": "view",
      "type": "function"
    },
    {
      "inputs": [],
      "name": "taskCount",
      "outputs": [
        {
          "internalType": "uint256",
          "name": "",
          "type": "uint256"
        }
      ],
      "stateMutability": "view",
      "type": "function"
    },
    {
      "inputs": [
        {
          "internalType": "uint256",
          "name": "",
          "type": "uint256"
        }
      ],
      "name": "tasks",
      "outputs": [
        {
          "internalType": "uint256",
          "name": "id",
          "type": "uint256"
        },
        {
          "internalType": "string",
          "name": "title",
          "type": "string"
        },
        {
          "internalType": "string",
          "name": "description",
          "type": "string"
        },
        {
          "internalType": "bool",
          "name": "completed",
          "type": "bool"
        },
        {
          "internalType": "uint8",
          "name": "priority",
          "type": "uint8"
        },
        {
          "internalType": "uint8",
          "name": "progress",
          "type": "uint8"
        },
        {
          "internalType": "string",
          "name": "aiAdvice",
          "type": "string"
        },
        {
          "internalType": "address",
          "name": "owner",
          "type": "address"
        },
        {
          "internalType": "string",
          "name": "deadline",
          "type": "string"
        }
      ],
      "stateMutability": "view",
      "type": "function"
    }
  ],
  "bytecode": "0x6080604052348015600f57600080fd5b506124878061001f6000396000f3fe608060405234801561001057600080fd5b50600436106100935760003560e01c8063779900b411610066578063779900b41461011c5780638d9776721461013a578063b6cb58a514610172578063c17a340e14610190578063e1e29558146101ae57610093565b80631d65e77e14610098578063439e8037146100c8578063560f3192146100e4578063663bf1ee14610100575b600080fd5b6100b260048036038101906100ad919061161d565b6101ca565b6040516100bf919061183b565b60405180910390f35b6100e260048036038101906100dd91906119be565b61056c565b005b6100fe60048036038101906100f9919061161d565b6107f8565b005b61011a60048036038101906101159190611abb565b61099b565b005b610124610bb0565b6040516101319190611d69565b60405180910390f35b610154600480360381019061014f919061161d565b611084565b60405161016999989796959493929190611e11565b60405180910390f35b61017a611339565b6040516101879190611eba565b60405180910390f35b61019861133f565b6040516101a59190611eba565b60405180910390f35b6101c860048036038101906101c3919061161d565b6113e8565b005b6101d261150c565b6000806000848152602001908152602001600020604051806101200160405290816000820154815260200160018201805461020c90611f04565b80601f016020809104026020016040519081016040528092919081815260200182805461023890611f04565b80156102855780601f1061025a57610100808354040283529160200191610285565b820191906000526020600020905b81548152906001019060200180831161026857829003601f168201915b5050505050815260200160028201805461029e90611f04565b80601f01602080910402602001604051908101604052809291908181526020018280546102ca90611f04565b80156103175780601f106102ec57610100808354040283529160200191610317565b820191906000526020600020905b8154815290600101906020018083116102fa57829003601f168201915b505050505081526020016003820160009054906101000a900460ff161515151581526020016003820160019054906101000a900460ff1660ff1660ff1681526020016003820160029054906101000a900460ff1660ff1660ff16815260200160048201805461038590611f04565b80601f01602080910402602001604051908101604052809291908181526020018280546103b190611f04565b80156103fe5780601f106103d3576101008083540402835291602001916103fe565b820191906000526020600020905b8154815290600101906020018083116103e157829003601f168201915b505050505081526020016005820160009054906101000a900473ffffffffffffffffffffffffffffffffffffffff1673ffffffffffffffffffffffffffffffffffffffff1673ffffffffffffffffffffffffffffffffffffffff16815260200160068201805461046d90611f04565b80601f016020809104026020016040519081016040528092919081815260200182805461049990611f04565b80156104e65780601f106104bb576101008083540402835291602001916104e6565b820191906000526020600020905b8154815290600101906020018083116104c957829003601f168201915b50505050508152505090503373ffffffffffffffffffffffffffffffffffffffff168160e0015173ffffffffffffffffffffffffffffffffffffffff1614610563576040517f08c379a000000000000000000000000000000000000000000000000000000000815260040161055a90611f81565b60405180910390fd5b80915050919050565b60018460ff1610158015610584575060038460ff1611155b6105c3576040517f08c379a00000000000000000000000000000000000000000000000000000000081526004016105ba90611fed565b60405180910390fd5b60648360ff16111561060a576040517f08c379a000000000000000000000000000000000000000000000000000000000815260040161060190612059565b60405180910390fd5b6001600081548092919061061d906120a8565b919050555060405180610120016040528060015481526020018781526020018681526020016000151581526020018560ff1681526020018460ff1681526020018381526020013373ffffffffffffffffffffffffffffffffffffffff1681526020018281525060008060015481526020019081526020016000206000820151816000015560208201518160010190816106b6919061229c565b5060408201518160020190816106cc919061229c565b5060608201518160030160006101000a81548160ff02191690831515021790555060808201518160030160016101000a81548160ff021916908360ff16021790555060a08201518160030160026101000a81548160ff021916908360ff16021790555060c0820151816004019081610744919061229c565b5060e08201518160050160006101000a81548173ffffffffffffffffffffffffffffffffffffffff021916908373ffffffffffffffffffffffffffffffffffffffff1602179055506101008201518160060190816107a2919061229c565b509050507fe85c62e5fe51bef0213b01f7b4c5530a119f56d7f7cc1d9462804279af2662f36001548787600088888833896040516107e899989796959493929190611e11565b60405180910390a1505050505050565b600080600083815260200190815260200160002090503373ffffffffffffffffffffffffffffffffffffffff168160050160009054906101000a900473ffffffffffffffffffffffffffffffffffffffff1673ffffffffffffffffffffffffffffffffffffffff16146108a0576040517f08c379a000000000000000000000000000000000000000000000000000000000815260040161089790611f81565b60405180910390fd5b7fd078b251d950cc55c44340be1db732337ef4939a76e1367ee271ad2cb19c46af826040516108cf9190611eba565b60405180910390a16000808381526020019081526020016000206000808201600090556001820160006109029190611576565b6002820160006109129190611576565b6003820160006101000a81549060ff02191690556003820160016101000a81549060ff02191690556003820160026101000a81549060ff021916905560048201600061095e9190611576565b6005820160006101000a81549073ffffffffffffffffffffffffffffffffffffffff02191690556006820160006109959190611576565b50505050565b60018460ff16101580156109b3575060038460ff1611155b6109f2576040517f08c379a00000000000000000000000000000000000000000000000000000000081526004016109e990611fed565b60405180910390fd5b60648360ff161115610a39576040517f08c379a0000000000000000000000000000000000000000000000000000000008152600401610a3090612059565b60405180910390fd5b600080600089815260200190815260200160002090503373ffffffffffffffffffffffffffffffffffffffff168160050160009054906101000a900473ffffffffffffffffffffffffffffffffffffffff1673ffffffffffffffffffffffffffffffffffffffff1614610ae1576040517f08c379a0000000000000000000000000000000000000000000000000000000008152600401610ad890611f81565b60405180910390fd5b86816001019081610af2919061229c565b5085816002019081610b04919061229c565b50848160030160016101000a81548160ff021916908360ff160217905550838160030160026101000a81548160ff021916908360ff16021790555082816004019081610b50919061229c565b5081816006019081610b62919061229c565b507f201bb30fc968e145a3cf678d450d1dc26333be71e277b70be16e4238020e173288888888888888604051610b9e979695949392919061236e565b60405180910390a15050505050505050565b6060600080600190505b6001548111610c4d573373ffffffffffffffffffffffffffffffffffffffff1660008083815260200190815260200160002060050160009054906101000a900473ffffffffffffffffffffffffffffffffffffffff1673ffffffffffffffffffffffffffffffffffffffff1603610c3a578180610c36906120a8565b9250505b8080610c45906120a8565b915050610bba565b5060008167ffffffffffffffff811115610c6a57610c69611867565b5b604051908082528060200260200182016040528015610ca357816020015b610c9061150c565b815260200190600190039081610c885790505b509050600080600190505b600154811161107a573373ffffffffffffffffffffffffffffffffffffffff1660008083815260200190815260200160002060050160009054906101000a900473ffffffffffffffffffffffffffffffffffffffff1673ffffffffffffffffffffffffffffffffffffffff1603611067576000808281526020019081526020016000206040518061012001604052908160008201548152602001600182018054610d5790611f04565b80601f0160208091040260200160405190810160405280929190818152602001828054610d8390611f04565b8015610dd05780601f10610da557610100808354040283529160200191610dd0565b820191906000526020600020905b815481529060010190602001808311610db357829003601f168201915b50505050508152602001600282018054610de990611f04565b80601f0160208091040260200160405190810160405280929190818152602001828054610e1590611f04565b8015610e625780601f10610e3757610100808354040283529160200191610e62565b820191906000526020600020905b815481529060010190602001808311610e4557829003601f168201915b505050505081526020016003820160009054906101000a900460ff161515151581526020016003820160019054906101000a900460ff1660ff1660ff1681526020016003820160029054906101000a900460ff1660ff1660ff168152602001600482018054610ed090611f04565b80601f0160208091040260200160405190810160405280929190818152602001828054610efc90611f04565b8015610f495780601f10610f1e57610100808354040283529160200191610f49565b820191906000526020600020905b815481529060010190602001808311610f2c57829003601f168201915b505050505081526020016005820160009054906101000a900473ffffffffffffffffffffffffffffffffffffffff1673ffffffffffffffffffffffffffffffffffffffff1673ffffffffffffffffffffffffffffffffffffffff168152602001600682018054610fb890611f04565b80601f0160208091040260200160405190810160405280929190818152602001828054610fe490611f04565b80156110315780601f1061100657610100808354040283529160200191611031565b820191906000526020600020905b81548152906001019060200180831161101457829003601f168201915b50505050508152505083838151811061104d5761104c6123f9565b5b60200260200101819052508180611063906120a8565b9250505b8080611072906120a8565b915050610cae565b5081935050505090565b60006020528060005260406000206000915090508060000154908060010180546110ad90611f04565b80601f01602080910402602001604051908101604052809291908181526020018280546110d990611f04565b80156111265780601f106110fb57610100808354040283529160200191611126565b820191906000526020600020905b81548152906001019060200180831161110957829003601f168201915b50505050509080600201805461113b90611f04565b80601f016020809104026020016040519081016040528092919081815260200182805461116790611f04565b80156111b45780601f10611189576101008083540402835291602001916111b4565b820191906000526020600020905b81548152906001019060200180831161119757829003601f168201915b5050505050908060030160009054906101000a900460ff16908060030160019054906101000a900460ff16908060030160029054906101000a900460ff169080600401805461120290611f04565b80601f016020809104026020016040519081016040528092919081815260200182805461122e90611f04565b801561127b5780601f106112505761010080835404028352916020019161127b565b820191906000526020600020905b81548152906001019060200180831161125e57829003601f168201915b5050505050908060050160009054906101000a900473ffffffffffffffffffffffffffffffffffffffff16908060060180546112b690611f04565b80601f01602080910402602001604051908101604052809291908181526020018280546112e290611f04565b801561132f5780601f106113045761010080835404028352916020019161132f565b820191906000526020600020905b81548152906001019060200180831161131257829003601f168201915b5050505050905089565b60015481565b600080600090506000600190505b60015481116113e0573373ffffffffffffffffffffffffffffffffffffffff1660008083815260200190815260200160002060050160009054906101000a900473ffffffffffffffffffffffffffffffffffffffff1673ffffffffffffffffffffffffffffffffffffffff16036113cd5781806113c9906120a8565b9250505b80806113d8906120a8565b91505061134d565b508091505090565b600080600083815260200190815260200160002090503373ffffffffffffffffffffffffffffffffffffffff168160050160009054906101000a900473ffffffffffffffffffffffffffffffffffffffff1673ffffffffffffffffffffffffffffffffffffffff1614611490576040517f08c379a000000000000000000000000000000000000000000000000000000000815260040161148790611f81565b60405180910390fd5b8060030160009054906101000a900460ff16158160030160006101000a81548160ff0219169083151502179055507fe21fa966ca5cd02748c0752352d18c48165e61cb55b4c29cccf924b5a95fcff1828260030160009054906101000a900460ff16604051611500929190612428565b60405180910390a15050565b604051806101200160405280600081526020016060815260200160608152602001600015158152602001600060ff168152602001600060ff16815260200160608152602001600073ffffffffffffffffffffffffffffffffffffffff168152602001606081525090565b50805461158290611f04565b6000825580601f1061159457506115b3565b601f0160209004906000526020600020908101906115b291906115b6565b5b50565b5b808211156115cf5760008160009055506001016115b7565b5090565b6000604051905090565b600080fd5b600080fd5b6000819050919050565b6115fa816115e7565b811461160557600080fd5b50565b600081359050611617816115f1565b92915050565b600060208284031215611633576116326115dd565b5b600061164184828501611608565b91505092915050565b611653816115e7565b82525050565b600081519050919050565b600082825260208201905092915050565b60005b83811015611693578082015181840152602081019050611678565b60008484015250505050565b6000601f19601f8301169050919050565b60006116bb82611659565b6116c58185611664565b93506116d5818560208601611675565b6116de8161169f565b840191505092915050565b60008115159050919050565b6116fe816116e9565b82525050565b600060ff82169050919050565b61171a81611704565b82525050565b600073ffffffffffffffffffffffffffffffffffffffff82169050919050565b600061174b82611720565b9050919050565b61175b81611740565b82525050565b60006101208301600083015161177a600086018261164a565b506020830151848203602086015261179282826116b0565b915050604083015184820360408601526117ac82826116b0565b91505060608301516117c160608601826116f5565b5060808301516117d46080860182611711565b5060a08301516117e760a0860182611711565b5060c083015184820360c08601526117ff82826116b0565b91505060e083015161181460e0860182611752565b5061010083015184820361010086015261182e82826116b0565b9150508091505092915050565b600060208201905081810360008301526118558184611761565b905092915050565b600080fd5b600080fd5b7f4e487b7100000000000000000000000000000000000000000000000000000000600052604160045260246000fd5b61189f8261169f565b810181811067ffffffffffffffff821117156118be576118bd611867565b5b80604052505050565b60006118d16115d3565b90506118dd8282611896565b919050565b600067ffffffffffffffff8211156118fd576118fc611867565b5b6119068261169f565b9050602081019050919050565b82818337600083830152505050565b6000611935611930846118e2565b6118c7565b90508281526020810184848401111561195157611950611862565b5b61195c848285611913565b509392505050565b600082601f8301126119795761197861185d565b5b8135611989848260208601611922565b91505092915050565b61199b81611704565b81146119a657600080fd5b50565b6000813590506119b881611992565b92915050565b60008060008060008060c087890312156119db576119da6115dd565b5b600087013567ffffffffffffffff8111156119f9576119f86115e2565b5b611a0589828a01611964565b965050602087013567ffffffffffffffff811115611a2657611a256115e2565b5b611a3289828a01611964565b9550506040611a4389828a016119a9565b9450506060611a5489828a016119a9565b935050608087013567ffffffffffffffff811115611a7557611a746115e2565b5b611a8189828a01611964565b92505060a087013567ffffffffffffffff811115611aa257611aa16115e2565b5b611aae89828a01611964565b9150509295509295509295565b600080600080600080600060e0888a031215611ada57611ad96115dd565b5b6000611ae88a828b01611608565b975050602088013567ffffffffffffffff811115611b0957611b086115e2565b5b611b158a828b01611964565b965050604088013567ffffffffffffffff811115611b3657611b356115e2565b5b611b428a828b01611964565b9550506060611b538a828b016119a9565b9450506080611b648a828b016119a9565b93505060a088013567ffffffffffffffff811115611b8557611b846115e2565b5b611b918a828b01611964565b92505060c088013567ffffffffffffffff811115611bb257611bb16115e2565b5b611bbe8a828b01611964565b91505092959891949750929550565b600081519050919050565b600082825260208201905092915050565b6000819050602082019050919050565b600061012083016000830151611c12600086018261164a565b5060208301518482036020860152611c2a82826116b0565b91505060408301518482036040860152611c4482826116b0565b9150506060830151611c5960608601826116f5565b506080830151611c6c6080860182611711565b5060a0830151611c7f60a0860182611711565b5060c083015184820360c0860152611c9782826116b0565b91505060e0830151611cac60e0860182611752565b50610100830151848203610100860152611cc682826116b0565b9150508091505092915050565b6000611cdf8383611bf9565b905092915050565b6000602082019050919050565b6000611cff82611bcd565b611d098185611bd8565b935083602082028501611d1b85611be9565b8060005b85811015611d575784840389528151611d388582611cd3565b9450611d4383611ce7565b925060208a01995050600181019050611d1f565b50829750879550505050505092915050565b60006020820190508181036000830152611d838184611cf4565b905092915050565b611d94816115e7565b82525050565b600082825260208201905092915050565b6000611db682611659565b611dc08185611d9a565b9350611dd0818560208601611675565b611dd98161169f565b840191505092915050565b611ded816116e9565b82525050565b611dfc81611704565b82525050565b611e0b81611740565b82525050565b600061012082019050611e27600083018c611d8b565b8181036020830152611e39818b611dab565b90508181036040830152611e4d818a611dab565b9050611e5c6060830189611de4565b611e696080830188611df3565b611e7660a0830187611df3565b81810360c0830152611e888186611dab565b9050611e9760e0830185611e02565b818103610100830152611eaa8184611dab565b90509a9950505050505050505050565b6000602082019050611ecf6000830184611d8b565b92915050565b7f4e487b7100000000000000000000000000000000000000000000000000000000600052602260045260246000fd5b60006002820490506001821680611f1c57607f821691505b602082108103611f2f57611f2e611ed5565b5b50919050565b7f4e6f74207461736b206f776e6572000000000000000000000000000000000000600082015250565b6000611f6b600e83611d9a565b9150611f7682611f35565b602082019050919050565b60006020820190508181036000830152611f9a81611f5e565b9050919050565b7f496e76616c6964207072696f726974792076616c756500000000000000000000600082015250565b6000611fd7601683611d9a565b9150611fe282611fa1565b602082019050919050565b6000602082019050818103600083015261200681611fca565b9050919050565b7f496e76616c69642070726f67726573732076616c756500000000000000000000600082015250565b6000612043601683611d9a565b915061204e8261200d565b602082019050919050565b6000602082019050818103600083015261207281612036565b9050919050565b7f4e487b7100000000000000000000000000000000000000000000000000000000600052601160045260246000fd5b60006120b3826115e7565b91507fffffffffffffffffffffffffffffffffffffffffffffffffffffffffffffffff82036120e5576120e4612079565b5b600182019050919050565b60008190508160005260206000209050919050565b60006020601f8301049050919050565b600082821b905092915050565b6000600883026121527fffffffffffffffffffffffffffffffffffffffffffffffffffffffffffffffff82612115565b61215c8683612115565b95508019841693508086168417925050509392505050565b6000819050919050565b600061219961219461218f846115e7565b612174565b6115e7565b9050919050565b6000819050919050565b6121b38361217e565b6121c76121bf826121a0565b848454612122565b825550505050565b600090565b6121dc6121cf565b6121e78184846121aa565b505050565b5b8181101561220b576122006000826121d4565b6001810190506121ed565b5050565b601f82111561225057612221816120f0565b61222a84612105565b81016020851015612239578190505b61224d61224585612105565b8301826121ec565b50505b505050565b600082821c905092915050565b600061227360001984600802612255565b1980831691505092915050565b600061228c8383612262565b9150826002028217905092915050565b6122a582611659565b67ffffffffffffffff8111156122be576122bd611867565b5b6122c88254611f04565b6122d382828561220f565b600060209050601f83116001811461230657600084156122f4578287015190505b6122fe8582612280565b865550612366565b601f198416612314866120f0565b60005b8281101561233c57848901518255600182019150602085019450602081019050612317565b868310156123595784890151612355601f891682612262565b8355505b6001600288020188555050505b505050505050565b600060e082019050612383600083018a611d8b565b81810360208301526123958189611dab565b905081810360408301526123a98188611dab565b90506123b86060830187611df3565b6123c56080830186611df3565b81810360a08301526123d78185611dab565b905081810360c08301526123eb8184611dab565b905098975050505050505050565b7f4e487b7100000000000000000000000000000000000000000000000000000000600052603260045260246000fd5b600060408201905061243d6000830185611d8b565b61244a6020830184611de4565b939250505056fea264697066735822122042d51d6bb1c1d1e9d04cc000d07f224c9e44b5e3aec4540e8ded86e43e4b595764736f6c634300081c0033",
  "linkReferences": {},
  "deployedLinkReferences": {}
}